:03000000020040BB
:06000B00758CE7D2D5322E
:1000400075741A75733275720E90010C11E17F018F
:1000500079757A807B05758970D2A9D2AF758CE7E6
:10006000D28C757B2030D5FDC2D57838E709D29681
:10007000F27830EFF2C296A2B55002427C2330E70C
:10008000357975857C7BE57C601EB57D1BB57E185A
:10009000B57F028013B4040411C3800CB4100411A2
:1000A000CD8005B4200211D7857E7F857D7E857C3D
:1000B0007D757C007401FFDAACDBAA7A807B0511C8
:1000C000C301650574E574B43C177574000573E5E8
:1000D00073B43C0D7573000572E572B41803757244
:1000E00000E57475F00A8493F576E5F093F575E50F
:1000F0007375F00A8493F578E5F093F577E57275FA
:10010000F00A8493F57AE5F093F579223F065B4F88
:0C011000666D7D077F6F777C585E79710B
:00000001FF
